{
  "contractName": "ArchiveCertification",
  "abi": [
    {
      "constant": true,
      "inputs": [
        {
          "name": "",
          "type": "uint256"
        }
      ],
      "name": "certificates",
      "outputs": [
        {
          "name": "process_owner",
          "type": "address"
        },
        {
          "name": "name",
          "type": "string"
        },
        {
          "name": "description",
          "type": "string"
        },
        {
          "name": "unique_identifier",
          "type": "uint256"
        }
      ],
      "payable": false,
      "stateMutability": "view",
      "type": "function"
    },
    {
      "inputs": [],
      "payable": false,
      "stateMutability": "nonpayable",
      "type": "constructor"
    },
    {
      "anonymous": false,
      "inputs": [
        {
          "indexed": true,
          "name": "_unique_identifier",
          "type": "uint256"
        },
        {
          "indexed": true,
          "name": "_process_owner",
          "type": "address"
        },
        {
          "indexed": false,
          "name": "_name",
          "type": "string"
        }
      ],
      "name": "LogSignCertificate",
      "type": "event"
    },
    {
      "anonymous": false,
      "inputs": [
        {
          "indexed": false,
          "name": "_unique_identifier",
          "type": "uint256"
        },
        {
          "indexed": false,
          "name": "_information",
          "type": "string"
        }
      ],
      "name": "LogModifyCertificate",
      "type": "event"
    },
    {
      "anonymous": false,
      "inputs": [
        {
          "indexed": false,
          "name": "_newOwner",
          "type": "address"
        },
        {
          "indexed": false,
          "name": "_unique_identifier",
          "type": "uint256"
        }
      ],
      "name": "LogModifyProcessOwner",
      "type": "event"
    },
    {
      "constant": true,
      "inputs": [],
      "name": "getLastBlockTimestamp",
      "outputs": [
        {
          "name": "",
          "type": "uint256"
        }
      ],
      "payable": false,
      "stateMutability": "view",
      "type": "function"
    },
    {
      "constant": true,
      "inputs": [],
      "name": "getContractOwner",
      "outputs": [
        {
          "name": "",
          "type": "address"
        }
      ],
      "payable": false,
      "stateMutability": "view",
      "type": "function"
    },
    {
      "constant": false,
      "inputs": [],
      "name": "kill",
      "outputs": [],
      "payable": false,
      "stateMutability": "nonpayable",
      "type": "function"
    },
    {
      "constant": false,
      "inputs": [
        {
          "name": "_process_owner",
          "type": "address"
        },
        {
          "name": "_name",
          "type": "string"
        },
        {
          "name": "_description",
          "type": "string"
        },
        {
          "name": "_unique_identifier",
          "type": "uint256"
        }
      ],
      "name": "signCertificate",
      "outputs": [],
      "payable": false,
      "stateMutability": "nonpayable",
      "type": "function"
    },
    {
      "constant": true,
      "inputs": [
        {
          "name": "_unique_identifier",
          "type": "uint256"
        }
      ],
      "name": "getCertificate",
      "outputs": [
        {
          "name": "",
          "type": "address"
        },
        {
          "name": "",
          "type": "string"
        },
        {
          "name": "",
          "type": "string"
        },
        {
          "name": "",
          "type": "address"
        },
        {
          "name": "",
          "type": "uint256"
        }
      ],
      "payable": false,
      "stateMutability": "view",
      "type": "function"
    },
    {
      "constant": true,
      "inputs": [
        {
          "name": "_unique_identifier",
          "type": "uint256"
        },
        {
          "name": "_processIndex",
          "type": "uint256"
        }
      ],
      "name": "getProcessInfo",
      "outputs": [
        {
          "name": "",
          "type": "address"
        },
        {
          "name": "",
          "type": "string"
        },
        {
          "name": "",
          "type": "string"
        },
        {
          "name": "",
          "type": "string"
        },
        {
          "name": "",
          "type": "uint256"
        }
      ],
      "payable": false,
      "stateMutability": "view",
      "type": "function"
    },
    {
      "constant": false,
      "inputs": [
        {
          "name": "_unique_identifier",
          "type": "uint256"
        },
        {
          "name": "_information",
          "type": "string"
        },
        {
          "name": "lat",
          "type": "string"
        },
        {
          "name": "lon",
          "type": "string"
        }
      ],
      "name": "modifyCertificate",
      "outputs": [],
      "payable": false,
      "stateMutability": "nonpayable",
      "type": "function"
    },
    {
      "constant": false,
      "inputs": [
        {
          "name": "_unique_identifier",
          "type": "uint256"
        },
        {
          "name": "_newOwner",
          "type": "address"
        },
        {
          "name": "lat",
          "type": "string"
        },
        {
          "name": "lon",
          "type": "string"
        }
      ],
      "name": "modifyProcessOwner",
      "outputs": [],
      "payable": false,
      "stateMutability": "nonpayable",
      "type": "function"
    },
    {
      "constant": true,
      "inputs": [
        {
          "name": "_unique_identifier",
          "type": "uint256"
        }
      ],
      "name": "getCertificateOwner",
      "outputs": [
        {
          "name": "",
          "type": "address"
        }
      ],
      "payable": false,
      "stateMutability": "view",
      "type": "function"
    },
    {
      "constant": true,
      "inputs": [
        {
          "name": "_addr",
          "type": "address"
        }
      ],
      "name": "addressToString",
      "outputs": [
        {
          "name": "",
          "type": "string"
        }
      ],
      "payable": false,
      "stateMutability": "pure",
      "type": "function"
    }
  ],
  "bytecode": "0x608060405234801561001057600080fd5b50336000806101000a81548173ffffffffffffffffffffffffffffffffffffffff021916908373ffffffffffffffffffffffffffffffffffffffff160217905550612305806100606000396000f3fe608060405234801561001057600080fd5b50600436106100a95760003560e01c80635e57966d116100715780635e57966d146105c1578063663b3e221461067e578063684aca83146107cb5780637282693e146109be57806384e814ef146109dc578063acebf3d514610a4a576100a9565b80631cac1dc2146100ae57806321fa832f1461022a57806341c0e1b5146103ed578063442890d5146103f757806351640fee14610441575b600080fd5b610228600480360360808110156100c457600080fd5b81019080803573ffffffffffffffffffffffffffffffffffffffff1690602001909291908035906020019064010000000081111561010157600080fd5b82018360208201111561011357600080fd5b8035906020019184600183028401116401000000008311171561013557600080fd5b91908080601f016020809104026020016040519081016040528093929190818152602001838380828437600081840152601f19601f8201169050808301925050505050505091929192908035906020019064010000000081111561019857600080fd5b8201836020820111156101aa57600080fd5b803590602001918460018302840111640100000000831117156101cc57600080fd5b91908080601f016020809104026020016040519081016040528093929190818152602001838380828437600081840152601f19601f82011690508083019250505050505050919291929080359060200190929190505050610bc6565b005b6102606004803603604081101561024057600080fd5b810190808035906020019092919080359060200190929190505050610fd0565b604051808673ffffffffffffffffffffffffffffffffffffffff1673ffffffffffffffffffffffffffffffffffffffff168152602001806020018060200180602001858152602001848103845288818151815260200191508051906020019080838360005b838110156102e05780820151818401526020810190506102c5565b50505050905090810190601f16801561030d5780820380516001836020036101000a031916815260200191505b50848103835287818151815260200191508051906020019080838360005b8381101561034657808201518184015260208101905061032b565b50505050905090810190601f1680156103735780820380516001836020036101000a031916815260200191505b50848103825286818151815260200191508051906020019080838360005b838110156103ac578082015181840152602081019050610391565b50505050905090810190601f1680156103d95780820380516001836020036101000a031916815260200191505b509850505050505050505060405180910390f35b6103f5611368565b005b6103ff611464565b604051808273ffffffffffffffffffffffffffffffffffffffff1673ffffffffffffffffffffffffffffffffffffffff16815260200191505060405180910390f35b61046d6004803603602081101561045757600080fd5b810190808035906020019092919050505061148d565b604051808673ffffffffffffffffffffffffffffffffffffffff1673ffffffffffffffffffffffffffffffffffffffff16815260200180602001806020018573ffffffffffffffffffffffffffffffffffffffff1673ffffffffffffffffffffffffffffffffffffffff168152602001848152602001838103835287818151815260200191508051906020019080838360005b8381101561051b578082015181840152602081019050610500565b50505050905090810190601f1680156105485780820380516001836020036101000a031916815260200191505b50838103825286818151815260200191508051906020019080838360005b83811015610581578082015181840152602081019050610566565b50505050905090810190601f1680156105ae5780820380516001836020036101000a031916815260200191505b5097505050505050505060405180910390f35b610603600480360360208110156105d757600080fd5b81019080803573ffffffffffffffffffffffffffffffffffffffff1690602001909291905050506116e9565b6040518080602001828103825283818151815260200191508051906020019080838360005b83811015610643578082015181840152602081019050610628565b50505050905090810190601f1680156106705780820380516001836020036101000a031916815260200191505b509250505060405180910390f35b6106aa6004803603602081101561069457600080fd5b810190808035906020019092919050505061196a565b604051808573ffffffffffffffffffffffffffffffffffffffff1673ffffffffffffffffffffffffffffffffffffffff1681526020018060200180602001848152602001838103835286818151815260200191508051906020019080838360005b8381101561072657808201518184015260208101905061070b565b50505050905090810190601f1680156107535780820380516001836020036101000a031916815260200191505b50838103825285818151815260200191508051906020019080838360005b8381101561078c578082015181840152602081019050610771565b50505050905090810190601f1680156107b95780820380516001836020036101000a031916815260200191505b50965050505050505060405180910390f35b6109bc600480360360808110156107e157600080fd5b81019080803590602001909291908035906020019064010000000081111561080857600080fd5b82018360208201111561081a57600080fd5b8035906020019184600183028401116401000000008311171561083c57600080fd5b91908080601f016020809104026020016040519081016040528093929190818152602001838380828437600081840152601f19601f8201169050808301925050505050505091929192908035906020019064010000000081111561089f57600080fd5b8201836020820111156108b157600080fd5b803590602001918460018302840111640100000000831117156108d357600080fd5b91908080601f016020809104026020016040519081016040528093929190818152602001838380828437600081840152601f19601f8201169050808301925050505050505091929192908035906020019064010000000081111561093657600080fd5b82018360208201111561094857600080fd5b8035906020019184600183028401116401000000008311171561096a57600080fd5b91908080601f016020809104026020016040519081016040528093929190818152602001838380828437600081840152601f19601f820116905080830192505050505050509192919290505050611aea565b005b6109c6611d94565b6040518082815260200191505060405180910390f35b610a08600480360360208110156109f257600080fd5b8101908080359060200190929190505050611d9c565b604051808273ffffffffffffffffffffffffffffffffffffffff1673ffffffffffffffffffffffffffffffffffffffff16815260200191505060405180910390f35b610bc460048036036080811015610a6057600080fd5b8101908080359060200190929190803573ffffffffffffffffffffffffffffffffffffffff16906020019092919080359060200190640100000000811115610aa757600080fd5b820183602082011115610ab957600080fd5b80359060200191846001830284011164010000000083111715610adb57600080fd5b91908080601f016020809104026020016040519081016040528093929190818152602001838380828437600081840152601f19601f82011690508083019250505050505050919291929080359060200190640100000000811115610b3e57600080fd5b820183602082011115610b5057600080fd5b80359060200191846001830284011164010000000083111715610b7257600080fd5b91908080601f016020809104026020016040519081016040528093929190818152602001838380828437600081840152601f19601f820116905080830192505050505050509192919290505050611de1565b005b6000809054906101000a900473ffffffffffffffffffffffffffffffffffffffff1673ffffffffffffffffffffffffffffffffffffffff163373ffffffffffffffffffffffffffffffffffffffff1614610c88576040517f08c379a00000000000000000000000000000000000000000000000000000000081526004018080602001828103825260138152602001807f4572726f722073657474696e67206f776e65720000000000000000000000000081525060200191505060405180910390fd5b836002600083815260200190815260200160002060000160006101000a81548173ffffffffffffffffffffffffffffffffffffffff021916908373ffffffffffffffffffffffffffffffffffffffff16021790555082600260008381526020019081526020016000206001019080519060200190610d079291906121b4565b5081600260008381526020019081526020016000206002019080519060200190610d329291906121b4565b50600260008281526020019081526020016000206003016040518060a001604052803373ffffffffffffffffffffffffffffffffffffffff1681526020016040518060400160405280600481526020017f496e69740000000000000000000000000000000000000000000000000000000081525081526020016040518060400160405280600381526020017f302e30000000000000000000000000000000000000000000000000000000000081525081526020016040518060400160405280600381526020017f302e3000000000000000000000000000000000000000000000000000000000008152508152602001428152509080600181540180825580915050906001820390600052602060002090600502016000909192909190915060008201518160000160006101000a81548173ffffffffffffffffffffffffffffffffffffffff021916908373ffffffffffffffffffffffffffffffffffffffff1602179055506020820151816001019080519060200190610eb3929190612234565b506040820151816002019080519060200190610ed0929190612234565b506060820151816003019080519060200190610eed929190612234565b50608082015181600401555050508060026000838152602001908152602001600020600401819055508373ffffffffffffffffffffffffffffffffffffffff16817fbfda96928ede3cdc2d2485f7aeb4bc19717507b9666e51a9bec41a2a183a3473856040518080602001828103825283818151815260200191508051906020019080838360005b83811015610f90578082015181840152602081019050610f75565b50505050905090810190601f168015610fbd5780820380516001836020036101000a031916815260200191505b509250505060405180910390a350505050565b60006060806060600086600260008981526020019081526020016000206004015414611064576040517f08c379a00000000000000000000000000000000000000000000000000000000081526004018080602001828103825260188152602001807f4572726f72206765744365727469666963617465496e666f000000000000000081525060200191505060405180910390fd5b60026000888152602001908152602001600020600301868154811061108557fe5b906000526020600020906005020160000160009054906101000a900473ffffffffffffffffffffffffffffffffffffffff166002600089815260200190815260200160002060030187815481106110d857fe5b9060005260206000209060050201600101600260008a8152602001908152602001600020600301888154811061110a57fe5b9060005260206000209060050201600201600260008b8152602001908152602001600020600301898154811061113c57fe5b9060005260206000209060050201600301600260008c81526020019081526020016000206003018a8154811061116e57fe5b906000526020600020906005020160040154838054600181600116156101000203166002900480601f0160208091040260200160405190810160405280929190818152602001828054600181600116156101000203166002900480156112155780601f106111ea57610100808354040283529160200191611215565b820191906000526020600020905b8154815290600101906020018083116111f857829003601f168201915b50505050509350828054600181600116156101000203166002900480601f0160208091040260200160405190810160405280929190818152602001828054600181600116156101000203166002900480156112b15780601f10611286576101008083540402835291602001916112b1565b820191906000526020600020905b81548152906001019060200180831161129457829003601f168201915b50505050509250818054600181600116156101000203166002900480601f01602080910402602001604051908101604052809291908181526020018280546001816001161561010002031660029004801561134d5780601f106113225761010080835404028352916020019161134d565b820191906000526020600020905b81548152906001019060200180831161133057829003601f168201915b50505050509150945094509450945094509295509295909350565b6000809054906101000a900473ffffffffffffffffffffffffffffffffffffffff1673ffffffffffffffffffffffffffffffffffffffff163373ffffffffffffffffffffffffffffffffffffffff161461142a576040517f08c379a00000000000000000000000000000000000000000000000000000000081526004018080602001828103825260138152602001807f4572726f722073657474696e67206f776e65720000000000000000000000000081525060200191505060405180910390fd5b6000809054906101000a900473ffffffffffffffffffffffffffffffffffffffff1673ffffffffffffffffffffffffffffffffffffffff16ff5b60008060009054906101000a900473ffffffffffffffffffffffffffffffffffffffff16905090565b600060608060008085600260008881526020019081526020016000206004015414611520576040517f08c379a00000000000000000000000000000000000000000000000000000000081526004018080602001828103825260148152602001807f4572726f7220676574436572746966696361746500000000000000000000000081525060200191505060405180910390fd5b6002600087815260200190815260200160002060000160009054906101000a900473ffffffffffffffffffffffffffffffffffffffff16600260008881526020019081526020016000206001016002600089815260200190815260200160002060020130600260008b815260200190815260200160002060030180549050838054600181600116156101000203166002900480601f0160208091040260200160405190810160405280929190818152602001828054600181600116156101000203166002900480156116335780601f1061160857610100808354040283529160200191611633565b820191906000526020600020905b81548152906001019060200180831161161657829003601f168201915b50505050509350828054600181600116156101000203166002900480601f0160208091040260200160405190810160405280929190818152602001828054600181600116156101000203166002900480156116cf5780601f106116a4576101008083540402835291602001916116cf565b820191906000526020600020905b8154815290600101906020018083116116b257829003601f168201915b505050505092509450945094509450945091939590929450565b606060008273ffffffffffffffffffffffffffffffffffffffff1660001b905060606040518060400160405280601081526020017f30313233343536373839616263646566000000000000000000000000000000008152509050606060336040519080825280601f01601f1916602001820160405280156117795781602001600182028038833980820191505090505b5090507f3000000000000000000000000000000000000000000000000000000000000000816000815181106117aa57fe5b60200101907effffffffffffffffffffffffffffffffffffffffffffffffffffffffffffff1916908160001a9053507f78000000000000000000000000000000000000000000000000000000000000008160018151811061180757fe5b60200101907effffffffffffffffffffffffffffffffffffffffffffffffffffffffffffff1916908160001a90535060008090505b601481101561195e5782600485600c84016020811061185757fe5b1a60f81b7effffffffffffffffffffffffffffffffffffffffffffffffffffffffffffff1916901c60f81c60ff168151811061188f57fe5b602001015160f81c60f81b8260028302600201815181106118ac57fe5b60200101907effffffffffffffffffffffffffffffffffffffffffffffffffffffffffffff1916908160001a90535082600f60f81b85600c8401602081106118f057fe5b1a60f81b1660f81c60ff168151811061190557fe5b602001015160f81c60f81b82600283026003018151811061192257fe5b60200101907effffffffffffffffffffffffffffffffffffffffffffffffffffffffffffff1916908160001a905350808060010191505061183c565b50809350505050919050565b60026020528060005260406000206000915090508060000160009054906101000a900473ffffffffffffffffffffffffffffffffffffffff1690806001018054600181600116156101000203166002900480601f016020809104026020016040519081016040528092919081815260200182805460018160011615610100020316600290048015611a3c5780601f10611a1157610100808354040283529160200191611a3c565b820191906000526020600020905b815481529060010190602001808311611a1f57829003601f168201915b505050505090806002018054600181600116156101000203166002900480601f016020809104026020016040519081016040528092919081815260200182805460018160011615610100020316600290048015611ada5780601f10611aaf57610100808354040283529160200191611ada565b820191906000526020600020905b815481529060010190602001808311611abd57829003601f168201915b5050505050908060040154905084565b6002600085815260200190815260200160002060000160009054906101000a900473ffffffffffffffffffffffffffffffffffffffff1673ffffffffffffffffffffffffffffffffffffffff163373ffffffffffffffffffffffffffffffffffffffff1614611bc1576040517f08c379a00000000000000000000000000000000000000000000000000000000081526004018080602001828103825260178152602001807f4572726f72206d6f64696679436572746966696361746500000000000000000081525060200191505060405180910390fd5b600260008581526020019081526020016000206003016040518060a001604052803373ffffffffffffffffffffffffffffffffffffffff168152602001858152602001848152602001838152602001428152509080600181540180825580915050906001820390600052602060002090600502016000909192909190915060008201518160000160006101000a81548173ffffffffffffffffffffffffffffffffffffffff021916908373ffffffffffffffffffffffffffffffffffffffff1602179055506020820151816001019080519060200190611ca2929190612234565b506040820151816002019080519060200190611cbf929190612234565b506060820151816003019080519060200190611cdc929190612234565b50608082015181600401555050507f4ed9d3149e3f4a2245abc07e1429b94876f87d613362f125b8e9128ca7443f5884846040518083815260200180602001828103825283818151815260200191508051906020019080838360005b83811015611d53578082015181840152602081019050611d38565b50505050905090810190601f168015611d805780820380516001836020036101000a031916815260200191505b50935050505060405180910390a150505050565b600042905090565b6000806002600084815260200190815260200160002090508060000160009054906101000a900473ffffffffffffffffffffffffffffffffffffffff16915050919050565b6002600085815260200190815260200160002060000160009054906101000a900473ffffffffffffffffffffffffffffffffffffffff1673ffffffffffffffffffffffffffffffffffffffff163373ffffffffffffffffffffffffffffffffffffffff1614611eb8576040517f08c379a00000000000000000000000000000000000000000000000000000000081526004018080602001828103825260188152602001807f4572726f72206d6f6469667950726f636573734f776e6572000000000000000081525060200191505060405180910390fd5b826002600086815260200190815260200160002060000160006101000a81548173ffffffffffffffffffffffffffffffffffffffff021916908373ffffffffffffffffffffffffffffffffffffffff160217905550606060405160200180807f5472616e73666572206f66206f776e65727368697020746f20000000000000008152506019019050604051602081830303815290604052905080611f5b856116e9565b6040516020018083805190602001908083835b60208310611f915780518252602082019150602081019050602083039250611f6e565b6001836020036101000a03801982511681845116808217855250505050505090500182805190602001908083835b60208310611fe25780518252602082019150602081019050602083039250611fbf565b6001836020036101000a038019825116818451168082178552505050505050905001925050506040516020818303038152906040529050600260008681526020019081526020016000206003016040518060a001604052803373ffffffffffffffffffffffffffffffffffffffff168152602001838152602001858152602001848152602001428152509080600181540180825580915050906001820390600052602060002090600502016000909192909190915060008201518160000160006101000a81548173ffffffffffffffffffffffffffffffffffffffff021916908373ffffffffffffffffffffffffffffffffffffffff16021790555060208201518160010190805190602001906120fa929190612234565b506040820151816002019080519060200190612117929190612234565b506060820151816003019080519060200190612134929190612234565b50608082015181600401555050507f8fb219ab319a1143dc3434037c1394359aa4c17fdd84e8d41563db11d41ef1788486604051808373ffffffffffffffffffffffffffffffffffffffff1673ffffffffffffffffffffffffffffffffffffffff1681526020018281526020019250505060405180910390a15050505050565b828054600181600116156101000203166002900490600052602060002090601f016020900481019282601f106121f557805160ff1916838001178555612223565b82800160010185558215612223579182015b82811115612222578251825591602001919060010190612207565b5b50905061223091906122b4565b5090565b828054600181600116156101000203166002900490600052602060002090601f016020900481019282601f1061227557805160ff19168380011785556122a3565b828001600101855582156122a3579182015b828111156122a2578251825591602001919060010190612287565b5b5090506122b091906122b4565b5090565b6122d691905b808211156122d25760008160009055506001016122ba565b5090565b9056fea165627a7a72305820453935890a971fb25e08e8d067d516b5b2440d7cbb4787ddbdd83c0da7ff38760029",
  "source": "pragma solidity ^0.5.7;\n\ncontract ArchiveCertification{\n\n  struct processAction{\n    address from;\n    string action;\n    string latitude;\n    string longitude;\n    uint256 timestamp;\n  }\n\n  struct Certificate{\n    address process_owner;\n    string name;\n    string description;\n    processAction[] process_data;\n    uint256 unique_identifier;\n  }\n\n  address payable contract_owner;\n  uint certificateCounter;\n  mapping (uint => Certificate) public certificates;\n\n  // modifiers\n  modifier contractOwner() {\n    require(msg.sender == contract_owner, \"Error setting owner\");\n    _;\n  }\n\n  // constructor\n  constructor () public {\n    contract_owner = msg.sender;\n  }\n\n  function getLastBlockTimestamp() public view returns (uint) {\n    return  block.timestamp;\n  }\n\n\n  function getContractOwner() public view returns (address){\n    return contract_owner;\n  }\n\n\n  // deactivate the contract\n  function kill() public contractOwner {\n    selfdestruct(contract_owner);\n  }\n\n  // events\n  event LogSignCertificate(\n    uint indexed _unique_identifier,\n    address indexed _process_owner,\n    string _name\n  );\n\n  // events\n  event LogModifyCertificate(\n    uint _unique_identifier,\n    string _information\n  );\n\n  // events\n  event LogModifyProcessOwner(\n    address _newOwner,\n    uint _unique_identifier\n  );\n\n\n  function signCertificate(address _process_owner, string memory _name,\n  string memory _description, uint256 _unique_identifier) public contractOwner{\n\n    certificates[_unique_identifier].process_owner = _process_owner;\n    certificates[_unique_identifier].name = _name;\n    certificates[_unique_identifier].description = _description;\n    certificates[_unique_identifier].process_data.push (processAction(msg.sender,\"Init\", \"0.0\", \"0.0\", block.timestamp ));\n    certificates[_unique_identifier].unique_identifier = _unique_identifier;\n\n\n    emit LogSignCertificate(_unique_identifier, _process_owner, _name);\n  }\n\n  function getCertificate(uint _unique_identifier) public view returns (\n    address, string memory, string memory, address, uint){\n\n    require(certificates[_unique_identifier].unique_identifier == _unique_identifier, \"Error getCertificate\");\n\n    return (certificates[_unique_identifier].process_owner, certificates[_unique_identifier].name, certificates[_unique_identifier].description, address(this), certificates[_unique_identifier].process_data.length);\n  }\n\n  function getProcessInfo(uint256 _unique_identifier, uint _processIndex) public view returns (address, string memory, string memory, string memory, uint256){\n    require(certificates[_unique_identifier].unique_identifier == _unique_identifier, \"Error getCertificateInfo\");\n\n    return (certificates[_unique_identifier].process_data[_processIndex].from,certificates[_unique_identifier].process_data[_processIndex].action, certificates[_unique_identifier].process_data[_processIndex].latitude,\n      certificates[_unique_identifier].process_data[_processIndex].longitude, certificates[_unique_identifier].process_data[_processIndex].timestamp);\n  }\n  function modifyCertificate(uint256 _unique_identifier, string memory _information, string memory lat, string memory lon) public {\n    require(msg.sender == certificates[_unique_identifier].process_owner,\"Error modifyCertificate\");\n\n    certificates[_unique_identifier].process_data.push (processAction(msg.sender,_information, lat, lon, block.timestamp ));\n    emit LogModifyCertificate(_unique_identifier, _information);\n  }\n\n  function modifyProcessOwner(uint256 _unique_identifier, address _newOwner, string memory lat, string memory lon) public {\n    require(msg.sender == certificates[_unique_identifier].process_owner,\"Error modifyProcessOwner\");\n\n    certificates[_unique_identifier].process_owner = _newOwner;\n    bytes memory ownerAction = abi.encodePacked(\"Transfer of ownership to \");\n    ownerAction = abi.encodePacked(ownerAction,addressToString(_newOwner));\n    certificates[_unique_identifier].process_data.push (processAction(msg.sender,string(ownerAction), lat, lon, block.timestamp ));\n    emit LogModifyProcessOwner(_newOwner, _unique_identifier);\n  }\n\n  function getCertificateOwner(uint256 _unique_identifier) public view returns (address){\n    Certificate storage certificate = certificates[_unique_identifier];\n    return certificate.process_owner;\n  }\n\n  function addressToString(address _addr) public pure returns(string memory)\n  {\n    bytes32 value = bytes32(uint256(_addr));\n    bytes memory alphabet = \"0123456789abcdef\";\n\n    bytes memory str = new bytes(51);\n    str[0] = '0';\n    str[1] = 'x';\n    for (uint256 i = 0; i < 20; i++) {\n        str[2+i*2] = alphabet[uint8(value[i + 12] >> 4)];\n        str[3+i*2] = alphabet[uint8(value[i + 12] & 0x0f)];\n    }\n    return string(str);\n  }\n\n\n}\n",
  "sourcePath": "/home/ferdi/BCSifiSC_rop_online/contracts/ArchiveCertification.sol",
  "compiler": {
    "name": "solc",
    "version": "0.5.8+commit.23d335f2.Emscripten.clang"
  },
  "schemaVersion": "3.0.11",
  "updatedAt": "2020-01-08T14:14:38.508Z",
  "devdoc": {
    "methods": {}
  },
  "userdoc": {
    "methods": {}
  }
}